{
  "_format": "hh-sol-artifact-1",
  "contractName": "OnDrafts",
  "sourceName": "contracts/OnDrafts.sol",
  "abi": [
    {
      "inputs": [
        {
          "internalType": "uint256",
          "name": "_devFee",
          "type": "uint256"
        }
      ],
      "stateMutability": "nonpayable",
      "type": "constructor"
    },
    {
      "inputs": [
        {
          "internalType": "address",
          "name": "owner",
          "type": "address"
        }
      ],
      "name": "OwnableInvalidOwner",
      "type": "error"
    },
    {
      "inputs": [
        {
          "internalType": "address",
          "name": "account",
          "type": "address"
        }
      ],
      "name": "OwnableUnauthorizedAccount",
      "type": "error"
    },
    {
      "inputs": [],
      "name": "ReentrancyGuardReentrantCall",
      "type": "error"
    },
    {
      "anonymous": false,
      "inputs": [
        {
          "indexed": false,
          "internalType": "uint256",
          "name": "fee",
          "type": "uint256"
        }
      ],
      "name": "DevFeeUpdated",
      "type": "event"
    },
    {
      "anonymous": false,
      "inputs": [
        {
          "indexed": true,
          "internalType": "address",
          "name": "to",
          "type": "address"
        },
        {
          "indexed": false,
          "internalType": "uint256",
          "name": "amount",
          "type": "uint256"
        }
      ],
      "name": "DevWithdrawn",
      "type": "event"
    },
    {
      "anonymous": false,
      "inputs": [
        {
          "indexed": true,
          "internalType": "uint256",
          "name": "gameId",
          "type": "uint256"
        },
        {
          "indexed": true,
          "internalType": "address",
          "name": "red",
          "type": "address"
        },
        {
          "indexed": false,
          "internalType": "bytes32",
          "name": "joinCodeHash",
          "type": "bytes32"
        }
      ],
      "name": "GameCreated",
      "type": "event"
    },
    {
      "anonymous": false,
      "inputs": [
        {
          "indexed": true,
          "internalType": "uint256",
          "name": "gameId",
          "type": "uint256"
        },
        {
          "indexed": true,
          "internalType": "address",
          "name": "by",
          "type": "address"
        }
      ],
      "name": "GameEnded",
      "type": "event"
    },
    {
      "anonymous": false,
      "inputs": [
        {
          "indexed": true,
          "internalType": "uint256",
          "name": "gameId",
          "type": "uint256"
        },
        {
          "indexed": true,
          "internalType": "address",
          "name": "black",
          "type": "address"
        }
      ],
      "name": "GameJoined",
      "type": "event"
    },
    {
      "anonymous": false,
      "inputs": [
        {
          "indexed": true,
          "internalType": "uint256",
          "name": "gameId",
          "type": "uint256"
        },
        {
          "indexed": true,
          "internalType": "address",
          "name": "player",
          "type": "address"
        },
        {
          "indexed": false,
          "internalType": "string",
          "name": "board",
          "type": "string"
        },
        {
          "indexed": false,
          "internalType": "uint8",
          "name": "nextTurn",
          "type": "uint8"
        }
      ],
      "name": "MoveMade",
      "type": "event"
    },
    {
      "anonymous": false,
      "inputs": [
        {
          "indexed": true,
          "internalType": "address",
          "name": "previousOwner",
          "type": "address"
        },
        {
          "indexed": true,
          "internalType": "address",
          "name": "newOwner",
          "type": "address"
        }
      ],
      "name": "OwnershipTransferred",
      "type": "event"
    },
    {
      "inputs": [
        {
          "internalType": "bytes32",
          "name": "joinCodeHash",
          "type": "bytes32"
        },
        {
          "internalType": "string",
          "name": "initialBoard",
          "type": "string"
        }
      ],
      "name": "createGame",
      "outputs": [
        {
          "internalType": "uint256",
          "name": "gameId",
          "type": "uint256"
        }
      ],
      "stateMutability": "nonpayable",
      "type": "function"
    },
    {
      "inputs": [],
      "name": "devBalance",
      "outputs": [
        {
          "internalType": "uint256",
          "name": "",
          "type": "uint256"
        }
      ],
      "stateMutability": "view",
      "type": "function"
    },
    {
      "inputs": [],
      "name": "devFee",
      "outputs": [
        {
          "internalType": "uint256",
          "name": "",
          "type": "uint256"
        }
      ],
      "stateMutability": "view",
      "type": "function"
    },
    {
      "inputs": [
        {
          "internalType": "uint256",
          "name": "gameId",
          "type": "uint256"
        }
      ],
      "name": "endGame",
      "outputs": [],
      "stateMutability": "nonpayable",
      "type": "function"
    },
    {
      "inputs": [
        {
          "internalType": "uint256",
          "name": "",
          "type": "uint256"
        }
      ],
      "name": "games",
      "outputs": [
        {
          "internalType": "address",
          "name": "red",
          "type": "address"
        },
        {
          "internalType": "address",
          "name": "black",
          "type": "address"
        },
        {
          "internalType": "string",
          "name": "board",
          "type": "string"
        },
        {
          "internalType": "uint8",
          "name": "turn",
          "type": "uint8"
        },
        {
          "internalType": "bool",
          "name": "active",
          "type": "bool"
        },
        {
          "internalType": "uint256",
          "name": "lastMoveAt",
          "type": "uint256"
        }
      ],
      "stateMutability": "view",
      "type": "function"
    },
    {
      "inputs": [
        {
          "internalType": "bytes32",
          "name": "joinCodeHash",
          "type": "bytes32"
        }
      ],
      "name": "getPendingGameId",
      "outputs": [
        {
          "internalType": "uint256",
          "name": "",
          "type": "uint256"
        }
      ],
      "stateMutability": "view",
      "type": "function"
    },
    {
      "inputs": [
        {
          "internalType": "string",
          "name": "joinCode",
          "type": "string"
        }
      ],
      "name": "joinGame",
      "outputs": [
        {
          "internalType": "uint256",
          "name": "gameId",
          "type": "uint256"
        }
      ],
      "stateMutability": "nonpayable",
      "type": "function"
    },
    {
      "inputs": [
        {
          "internalType": "uint256",
          "name": "gameId",
          "type": "uint256"
        },
        {
          "internalType": "string",
          "name": "newBoard",
          "type": "string"
        }
      ],
      "name": "makeMove",
      "outputs": [],
      "stateMutability": "payable",
      "type": "function"
    },
    {
      "inputs": [],
      "name": "nextGameId",
      "outputs": [
        {
          "internalType": "uint256",
          "name": "",
          "type": "uint256"
        }
      ],
      "stateMutability": "view",
      "type": "function"
    },
    {
      "inputs": [],
      "name": "owner",
      "outputs": [
        {
          "internalType": "address",
          "name": "",
          "type": "address"
        }
      ],
      "stateMutability": "view",
      "type": "function"
    },
    {
      "inputs": [],
      "name": "renounceOwnership",
      "outputs": [],
      "stateMutability": "nonpayable",
      "type": "function"
    },
    {
      "inputs": [
        {
          "internalType": "uint256",
          "name": "_fee",
          "type": "uint256"
        }
      ],
      "name": "setDevFee",
      "outputs": [],
      "stateMutability": "nonpayable",
      "type": "function"
    },
    {
      "inputs": [
        {
          "internalType": "address",
          "name": "newOwner",
          "type": "address"
        }
      ],
      "name": "transferOwnership",
      "outputs": [],
      "stateMutability": "nonpayable",
      "type": "function"
    },
    {
      "inputs": [
        {
          "internalType": "address payable",
          "name": "to",
          "type": "address"
        },
        {
          "internalType": "uint256",
          "name": "amount",
          "type": "uint256"
        }
      ],
      "name": "withdrawDevBalance",
      "outputs": [],
      "stateMutability": "nonpayable",
      "type": "function"
    },
    {
      "stateMutability": "payable",
      "type": "receive"
    }
  ],
  "bytecode": "0x60806040523480156200001157600080fd5b506040516200252d3803806200252d8339818101604052810190620000379190620001d8565b33600073ffffffffffffffffffffffffffffffffffffffff168173ffffffffffffffffffffffffffffffffffffffff1603620000ad5760006040517f1e4fbdf7000000000000000000000000000000000000000000000000000000008152600401620000a491906200024f565b60405180910390fd5b620000be81620000d460201b60201c565b506001808190555080600481905550506200026c565b60008060009054906101000a900473ffffffffffffffffffffffffffffffffffffffff169050816000806101000a81548173ffffffffffffffffffffffffffffffffffffffff021916908373ffffffffffffffffffffffffffffffffffffffff1602179055508173ffffffffffffffffffffffffffffffffffffffff168173ffffffffffffffffffffffffffffffffffffffff167f8be0079c531659141344cd1fd0a4f28419497f9722a3daafe3b4186f6b6457e060405160405180910390a35050565b600080fd5b6000819050919050565b620001b2816200019d565b8114620001be57600080fd5b50565b600081519050620001d281620001a7565b92915050565b600060208284031215620001f157620001f062000198565b5b60006200020184828501620001c1565b91505092915050565b600073ffffffffffffffffffffffffffffffffffffffff82169050919050565b600062000237826200020a565b9050919050565b62000249816200022a565b82525050565b60006020820190506200026660008301846200023e565b92915050565b6122b1806200027c6000396000f3fe6080604052600436106100e15760003560e01c806374994e221161007f578063b135bbb011610059578063b135bbb0146102d9578063cd9a1b6314610304578063d0399bb81461032f578063f2fde38b1461035857610100565b806374994e22146102695780637d20e927146102925780638da5cb5b146102ae57610100565b80633d536a2e116100bb5780633d536a2e146101ad57806346f7d05b146101ea5780636827e76414610227578063715018a61461025257610100565b8063117a5b90146101055780631c75b6b214610147578063227193051461017057610100565b366101005734600560008282546100f891906112be565b925050819055005b600080fd5b34801561011157600080fd5b5061012c60048036038101906101279190611328565b610381565b60405161013e9695949392919061146c565b60405180910390f35b34801561015357600080fd5b5061016e60048036038101906101699190611328565b61049f565b005b34801561017c57600080fd5b506101976004803603810190610192919061156f565b6104e8565b6040516101a491906115cf565b60405180910390f35b3480156101b957600080fd5b506101d460048036038101906101cf91906115ea565b61076f565b6040516101e191906115cf565b60405180910390f35b3480156101f657600080fd5b50610211600480360381019061020c9190611637565b6109ed565b60405161021e91906115cf565b60405180910390f35b34801561023357600080fd5b5061023c610a0a565b60405161024991906115cf565b60405180910390f35b34801561025e57600080fd5b50610267610a10565b005b34801561027557600080fd5b50610290600480360381019061028b91906116a2565b610a24565b005b6102ac60048036038101906102a791906116e2565b610b99565b005b3480156102ba57600080fd5b506102c3610e6f565b6040516102d09190611742565b60405180910390f35b3480156102e557600080fd5b506102ee610e98565b6040516102fb91906115cf565b60405180910390f35b34801561031057600080fd5b50610319610e9e565b60405161032691906115cf565b60405180910390f35b34801561033b57600080fd5b5061035660048036038101906103519190611328565b610ea4565b005b34801561036457600080fd5b5061037f600480360381019061037a9190611789565b61105d565b005b60026020528060005260406000206000915090508060000160009054906101000a900473ffffffffffffffffffffffffffffffffffffffff16908060010160009054906101000a900473ffffffffffffffffffffffffffffffffffffffff16908060020180546103f0906117e5565b80601f016020809104026020016040519081016040528092919081815260200182805461041c906117e5565b80156104695780601f1061043e57610100808354040283529160200191610469565b820191906000526020600020905b81548152906001019060200180831161044c57829003601f168201915b5050505050908060030160009054906101000a900460ff16908060030160019054906101000a900460ff16908060040154905086565b6104a76110e3565b806004819055507fd2fcc8c801d1c6ec6267fa3420cc8428c11a8c06f0d110a700fe9ff1e7317360816040516104dd91906115cf565b60405180910390a150565b60008060066000868152602001908152602001600020541461053f576040517f08c379a000000000000000000000000000000000000000000000000000000000815260040161053690611862565b60405180910390fd5b60036000815461054e90611882565b91905081905590506040518060c001604052803373ffffffffffffffffffffffffffffffffffffffff168152602001600073ffffffffffffffffffffffffffffffffffffffff16815260200184848080601f016020809104026020016040519081016040528093929190818152602001838380828437600081840152601f19601f820116905080830192505050505050508152602001600060ff16815260200160001515815260200160008152506002600083815260200190815260200160002060008201518160000160006101000a81548173ffffffffffffffffffffffffffffffffffffffff021916908373ffffffffffffffffffffffffffffffffffffffff16021790555060208201518160010160006101000a81548173ffffffffffffffffffffffffffffffffffffffff021916908373ffffffffffffffffffffffffffffffffffffffff16021790555060408201518160020190816106b29190611aa5565b5060608201518160030160006101000a81548160ff021916908360ff16021790555060808201518160030160016101000a81548160ff02191690831515021790555060a082015181600401559050508060066000868152602001908152602001600020819055503373ffffffffffffffffffffffffffffffffffffffff16817f3f0164df801ab6ce891e61b3f88fac307c68643f4ff603cc204d883c2d903b69866040516107609190611b86565b60405180910390a39392505050565b6000808383604051610782929190611be0565b6040518091039020905060066000828152602001908152602001600020549150600082036107e5576040517f08c379a00000000000000000000000000000000000000000000000000000000081526004016107dc90611c45565b60405180910390fd5b6000600260008481526020019081526020016000209050600073ffffffffffffffffffffffffffffffffffffffff168160010160009054906101000a900473ffffffffffffffffffffffffffffffffffffffff1673ffffffffffffffffffffffffffffffffffffffff161461088f576040517f08c379a000000000000000000000000000000000000000000000000000000000815260040161088690611cb1565b60405180910390fd5b3373ffffffffffffffffffffffffffffffffffffffff168160000160009054906101000a900473ffffffffffffffffffffffffffffffffffffffff1673ffffffffffffffffffffffffffffffffffffffff1603610921576040517f08c379a000000000000000000000000000000000000000000000000000000000815260040161091890611d1d565b60405180910390fd5b338160010160006101000a81548173ffffffffffffffffffffffffffffffffffffffff021916908373ffffffffffffffffffffffffffffffffffffffff16021790555060018160030160016101000a81548160ff02191690831515021790555042816004018190555060066000838152602001908152602001600020600090553373ffffffffffffffffffffffffffffffffffffffff16837f45c4f9cbafe186141862608c493f28b823fde4c2142bedc3f5169961a73fdd2260405160405180910390a3505092915050565b600060066000838152602001908152602001600020549050919050565b60045481565b610a186110e3565b610a22600061116a565b565b610a2c6110e3565b610a3461122e565b600554811115610a79576040517f08c379a0000000000000000000000000000000000000000000000000000000008152600401610a7090611d89565b60405180910390fd5b8060056000828254610a8b9190611da9565b9250508190555060008273ffffffffffffffffffffffffffffffffffffffff1682604051610ab890611e03565b60006040518083038185875af1925050503d8060008114610af5576040519150601f19603f3d011682016040523d82523d6000602084013e610afa565b606091505b5050905080610b3e576040517f08c379a0000000000000000000000000000000000000000000000000000000008152600401610b3590611e64565b60405180910390fd5b8273ffffffffffffffffffffffffffffffffffffffff167f8b127b7cdc9e9836c53760d4bf5c83aa5d41780b495bb1c83d07e2238d4c982683604051610b8491906115cf565b60405180910390a250610b95611274565b5050565b60006002600085815260200190815260200160002090508060030160019054906101000a900460ff16610c01576040517f08c379a0000000000000000000000000000000000000000000000000000000008152600401610bf890611ed0565b60405180910390fd5b60008160030160009054906101000a900460ff1660ff1603610cb4578060000160009054906101000a900473ffffffffffffffffffffffffffffffffffffffff1673ffffffffffffffffffffffffffffffffffffffff163373ffffffffffffffffffffffffffffffffffffffff1614610caf576040517f08c379a0000000000000000000000000000000000000000000000000000000008152600401610ca690611f3c565b60405180910390fd5b610d47565b8060010160009054906101000a900473ffffffffffffffffffffffffffffffffffffffff1673ffffffffffffffffffffffffffffffffffffffff163373ffffffffffffffffffffffffffffffffffffffff1614610d46576040517f08c379a0000000000000000000000000000000000000000000000000000000008152600401610d3d90611fa8565b60405180910390fd5b5b6004543414610d8b576040517f08c379a0000000000000000000000000000000000000000000000000000000008152600401610d8290612014565b60405180910390fd5b6000341115610dae573460056000828254610da691906112be565b925050819055505b8282826002019182610dc192919061203f565b508060030160009054906101000a900460ff166001610de0919061210f565b8160030160006101000a81548160ff021916908360ff1602179055504281600401819055503373ffffffffffffffffffffffffffffffffffffffff16847f7ada4b01f884455d766e32da8fe0ad0b08760fea7222ea80856695c6771b391985858560030160009054906101000a900460ff16604051610e6193929190612171565b60405180910390a350505050565b60008060009054906101000a900473ffffffffffffffffffffffffffffffffffffffff16905090565b60035481565b60055481565b60006002600083815260200190815260200160002090508060030160019054906101000a900460ff16610f0c576040517f08c379a0000000000000000000000000000000000000000000000000000000008152600401610f03906121ef565b60405180910390fd5b8060000160009054906101000a900473ffffffffffffffffffffffffffffffffffffffff1673ffffffffffffffffffffffffffffffffffffffff163373ffffffffffffffffffffffffffffffffffffffff161480610fb957508060010160009054906101000a900473ffffffffffffffffffffffffffffffffffffffff1673ffffffffffffffffffffffffffffffffffffffff163373ffffffffffffffffffffffffffffffffffffffff16145b610ff8576040517f08c379a0000000000000000000000000000000000000000000000000000000008152600401610fef9061225b565b60405180910390fd5b60008160030160016101000a81548160ff0219169083151502179055503373ffffffffffffffffffffffffffffffffffffffff16827f3d5fcd8fa3235aeb3897f25c8ea49989174981afcb01b9d03189d1056a16775b60405160405180910390a35050565b6110656110e3565b600073ffffffffffffffffffffffffffffffffffffffff168173ffffffffffffffffffffffffffffffffffffffff16036110d75760006040517f1e4fbdf70000000000000000000000000000000000000000000000000000000081526004016110ce9190611742565b60405180910390fd5b6110e08161116a565b50565b6110eb61127d565b73ffffffffffffffffffffffffffffffffffffffff16611109610e6f565b73ffffffffffffffffffffffffffffffffffffffff16146111685761112c61127d565b6040517f118cdaa700000000000000000000000000000000000000000000000000000000815260040161115f9190611742565b60405180910390fd5b565b60008060009054906101000a900473ffffffffffffffffffffffffffffffffffffffff169050816000806101000a81548173ffffffffffffffffffffffffffffffffffffffff021916908373ffffffffffffffffffffffffffffffffffffffff1602179055508173ffffffffffffffffffffffffffffffffffffffff168173ffffffffffffffffffffffffffffffffffffffff167f8be0079c531659141344cd1fd0a4f28419497f9722a3daafe3b4186f6b6457e060405160405180910390a35050565b60026001540361126a576040517f3ee5aeb500000000000000000000000000000000000000000000000000000000815260040160405180910390fd5b6002600181905550565b60018081905550565b600033905090565b6000819050919050565b7f4e487b7100000000000000000000000000000000000000000000000000000000600052601160045260246000fd5b60006112c982611285565b91506112d483611285565b92508282019050808211156112ec576112eb61128f565b5b92915050565b600080fd5b600080fd5b61130581611285565b811461131057600080fd5b50565b600081359050611322816112fc565b92915050565b60006020828403121561133e5761133d6112f2565b5b600061134c84828501611313565b91505092915050565b600073ffffffffffffffffffffffffffffffffffffffff82169050919050565b600061138082611355565b9050919050565b61139081611375565b82525050565b600081519050919050565b600082825260208201905092915050565b60005b838110156113d05780820151818401526020810190506113b5565b60008484015250505050565b6000601f19601f8301169050919050565b60006113f882611396565b61140281856113a1565b93506114128185602086016113b2565b61141b816113dc565b840191505092915050565b600060ff82169050919050565b61143c81611426565b82525050565b60008115159050919050565b61145781611442565b82525050565b61146681611285565b82525050565b600060c0820190506114816000830189611387565b61148e6020830188611387565b81810360408301526114a081876113ed565b90506114af6060830186611433565b6114bc608083018561144e565b6114c960a083018461145d565b979650505050505050565b6000819050919050565b6114e7816114d4565b81146114f257600080fd5b50565b600081359050611504816114de565b92915050565b600080fd5b600080fd5b600080fd5b60008083601f84011261152f5761152e61150a565b5b8235905067ffffffffffffffff81111561154c5761154b61150f565b5b60208301915083600182028301111561156857611567611514565b5b9250929050565b600080600060408486031215611588576115876112f2565b5b6000611596868287016114f5565b935050602084013567ffffffffffffffff8111156115b7576115b66112f7565b5b6115c386828701611519565b92509250509250925092565b60006020820190506115e4600083018461145d565b92915050565b60008060208385031215611601576116006112f2565b5b600083013567ffffffffffffffff81111561161f5761161e6112f7565b5b61162b85828601611519565b92509250509250929050565b60006020828403121561164d5761164c6112f2565b5b600061165b848285016114f5565b91505092915050565b600061166f82611355565b9050919050565b61167f81611664565b811461168a57600080fd5b50565b60008135905061169c81611676565b92915050565b600080604083850312156116b9576116b86112f2565b5b60006116c78582860161168d565b92505060206116d885828601611313565b9150509250929050565b6000806000604084860312156116fb576116fa6112f2565b5b600061170986828701611313565b935050602084013567ffffffffffffffff81111561172a576117296112f7565b5b61173686828701611519565b92509250509250925092565b60006020820190506117576000830184611387565b92915050565b61176681611375565b811461177157600080fd5b50565b6000813590506117838161175d565b92915050565b60006020828403121561179f5761179e6112f2565b5b60006117ad84828501611774565b91505092915050565b7f4e487b7100000000000000000000000000000000000000000000000000000000600052602260045260246000fd5b600060028204905060018216806117fd57607f821691505b6020821081036118105761180f6117b6565b5b50919050565b7f636f646520616c72656164792075736564000000000000000000000000000000600082015250565b600061184c6011836113a1565b915061185782611816565b602082019050919050565b6000602082019050818103600083015261187b8161183f565b9050919050565b600061188d82611285565b91507fffffffffffffffffffffffffffffffffffffffffffffffffffffffffffffffff82036118bf576118be61128f565b5b600182019050919050565b7f4e487b7100000000000000000000000000000000000000000000000000000000600052604160045260246000fd5b60008190508160005260206000209050919050565b60006020601f8301049050919050565b600082821b905092915050565b60006008830261195b7fffffffffffffffffffffffffffffffffffffffffffffffffffffffffffffffff8261191e565b611965868361191e565b95508019841693508086168417925050509392505050565b6000819050919050565b60006119a261199d61199884611285565b61197d565b611285565b9050919050565b6000819050919050565b6119bc83611987565b6119d06119c8826119a9565b84845461192b565b825550505050565b600090565b6119e56119d8565b6119f08184846119b3565b505050565b5b81811015611a1457611a096000826119dd565b6001810190506119f6565b5050565b601f821115611a5957611a2a816118f9565b611a338461190e565b81016020851015611a42578190505b611a56611a4e8561190e565b8301826119f5565b50505b505050565b600082821c905092915050565b6000611a7c60001984600802611a5e565b1980831691505092915050565b6000611a958383611a6b565b9150826002028217905092915050565b611aae82611396565b67ffffffffffffffff811115611ac757611ac66118ca565b5b611ad182546117e5565b611adc828285611a18565b600060209050601f831160018114611b0f5760008415611afd578287015190505b611b078582611a89565b865550611b6f565b601f198416611b1d866118f9565b60005b82811015611b4557848901518255600182019150602085019450602081019050611b20565b86831015611b625784890151611b5e601f891682611a6b565b8355505b6001600288020188555050505b505050505050565b611b80816114d4565b82525050565b6000602082019050611b9b6000830184611b77565b92915050565b600081905092915050565b82818337600083830152505050565b6000611bc78385611ba1565b9350611bd4838584611bac565b82840190509392505050565b6000611bed828486611bbb565b91508190509392505050565b7f696e76616c6964206a6f696e20636f6465000000000000000000000000000000600082015250565b6000611c2f6011836113a1565b9150611c3a82611bf9565b602082019050919050565b60006020820190508181036000830152611c5e81611c22565b9050919050565b7f616c7265616479206a6f696e6564000000000000000000000000000000000000600082015250565b6000611c9b600e836113a1565b9150611ca682611c65565b602082019050919050565b60006020820190508181036000830152611cca81611c8e565b9050919050565b7f686f73742063616e6e6f74206a6f696e00000000000000000000000000000000600082015250565b6000611d076010836113a1565b9150611d1282611cd1565b602082019050919050565b60006020820190508181036000830152611d3681611cfa565b9050919050565b7f696e73756666696369656e74206465762062616c616e63650000000000000000600082015250565b6000611d736018836113a1565b9150611d7e82611d3d565b602082019050919050565b60006020820190508181036000830152611da281611d66565b9050919050565b6000611db482611285565b9150611dbf83611285565b9250828203905081811115611dd757611dd661128f565b5b92915050565b50565b6000611ded600083611ba1565b9150611df882611ddd565b600082019050919050565b6000611e0e82611de0565b9150819050919050565b7f7769746864726177206661696c65640000000000000000000000000000000000600082015250565b6000611e4e600f836113a1565b9150611e5982611e18565b602082019050919050565b60006020820190508181036000830152611e7d81611e41565b9050919050565b7f67616d6520696e61637469766500000000000000000000000000000000000000600082015250565b6000611eba600d836113a1565b9150611ec582611e84565b602082019050919050565b60006020820190508181036000830152611ee981611ead565b9050919050565b7f7265642773207475726e00000000000000000000000000000000000000000000600082015250565b6000611f26600a836113a1565b9150611f3182611ef0565b602082019050919050565b60006020820190508181036000830152611f5581611f19565b9050919050565b7f626c61636b2773207475726e0000000000000000000000000000000000000000600082015250565b6000611f92600c836113a1565b9150611f9d82611f5c565b602082019050919050565b60006020820190508181036000830152611fc181611f85565b9050919050565b7f666565206d69736d617463680000000000000000000000000000000000000000600082015250565b6000611ffe600c836113a1565b915061200982611fc8565b602082019050919050565b6000602082019050818103600083015261202d81611ff1565b9050919050565b600082905092915050565b6120498383612034565b67ffffffffffffffff811115612062576120616118ca565b5b61206c82546117e5565b612077828285611a18565b6000601f8311600181146120a65760008415612094578287013590505b61209e8582611a89565b865550612106565b601f1984166120b4866118f9565b60005b828110156120dc578489013582556001820191506020850194506020810190506120b7565b868310156120f957848901356120f5601f891682611a6b565b8355505b6001600288020188555050505b50505050505050565b600061211a82611426565b915061212583611426565b9250828203905060ff81111561213e5761213d61128f565b5b92915050565b600061215083856113a1565b935061215d838584611bac565b612166836113dc565b840190509392505050565b6000604082019050818103600083015261218c818587612144565b905061219b6020830184611433565b949350505050565b7f616c726561647920696e61637469766500000000000000000000000000000000600082015250565b60006121d96010836113a1565b91506121e4826121a3565b602082019050919050565b60006020820190508181036000830152612208816121cc565b9050919050565b7f6f6e6c7920706c61796572730000000000000000000000000000000000000000600082015250565b6000612245600c836113a1565b91506122508261220f565b602082019050919050565b6000602082019050818103600083015261227481612238565b905091905056fea26469706673582212209f66c2773265346a884c187a37a691b315879f3a95c3240da24029265d1d06f464736f6c63430008180033",
  "linkReferences": {},
  "deployedLinkReferences": {}
}